{
  "contractName": "ToDo",
  "abi": [
    {
      "inputs": [
        {
          "internalType": "string",
          "name": "_content",
          "type": "string"
        },
        {
          "internalType": "string",
          "name": "_author",
          "type": "string"
        }
      ],
      "name": "createTask",
      "outputs": [],
      "stateMutability": "nonpayable",
      "type": "function"
    },
    {
      "inputs": [
        {
          "internalType": "uint256",
          "name": "_id",
          "type": "uint256"
        }
      ],
      "name": "getTask",
      "outputs": [
        {
          "internalType": "uint256",
          "name": "",
          "type": "uint256"
        },
        {
          "internalType": "uint256",
          "name": "",
          "type": "uint256"
        },
        {
          "internalType": "string",
          "name": "",
          "type": "string"
        },
        {
          "internalType": "string",
          "name": "",
          "type": "string"
        },
        {
          "internalType": "bool",
          "name": "",
          "type": "bool"
        }
      ],
      "stateMutability": "view",
      "type": "function",
      "constant": true
    },
    {
      "inputs": [],
      "name": "getTasks",
      "outputs": [
        {
          "components": [
            {
              "internalType": "uint256",
              "name": "id",
              "type": "uint256"
            },
            {
              "internalType": "uint256",
              "name": "date",
              "type": "uint256"
            },
            {
              "internalType": "string",
              "name": "content",
              "type": "string"
            },
            {
              "internalType": "string",
              "name": "author",
              "type": "string"
            },
            {
              "internalType": "bool",
              "name": "done",
              "type": "bool"
            }
          ],
          "internalType": "struct ToDo.Task[]",
          "name": "",
          "type": "tuple[]"
        }
      ],
      "stateMutability": "view",
      "type": "function",
      "constant": true
    }
  ],
  "bytecode": "0x608060405234801561001057600080fd5b50610d51806100206000396000f3fe608060405234801561001057600080fd5b50600436106100415760003560e01c806304a87e38146100465780631d65e77e14610064578063292a458514610098575b600080fd5b61004e6100b4565b60405161005b9190610709565b60405180910390f35b61007e6004803603810190610079919061076b565b610266565b60405161008f959493929190610800565b60405180910390f35b6100b260048036038101906100ad9190610996565b61043d565b005b60606000805480602002602001604051908101604052809291908181526020016000905b8282101561025d57838290600052602060002090600502016040518060a0016040529081600082015481526020016001820154815260200160028201805461011f90610a3d565b80601f016020809104026020016040519081016040528092919081815260200182805461014b90610a3d565b80156101985780601f1061016d57610100808354040283529160200191610198565b820191906000526020600020905b81548152906001019060200180831161017b57829003601f168201915b505050505081526020016003820180546101b190610a3d565b80601f01602080910402602001604051908101604052809291908181526020018280546101dd90610a3d565b801561022a5780601f106101ff5761010080835404028352916020019161022a565b820191906000526020600020905b81548152906001019060200180831161020d57829003601f168201915b505050505081526020016004820160009054906101000a900460ff161515151581525050815260200190600101906100d8565b50505050905090565b6000806060806000856000878154811061028357610282610a6e565b5b906000526020600020906005020160010154600088815481106102a9576102a8610a6e565b5b9060005260206000209060050201600201600089815481106102ce576102cd610a6e565b5b906000526020600020906005020160030160008a815481106102f3576102f2610a6e565b5b906000526020600020906005020160040160009054906101000a900460ff1682805461031e90610a3d565b80601f016020809104026020016040519081016040528092919081815260200182805461034a90610a3d565b80156103975780601f1061036c57610100808354040283529160200191610397565b820191906000526020600020905b81548152906001019060200180831161037a57829003601f168201915b505050505092508180546103aa90610a3d565b80601f01602080910402602001604051908101604052809291908181526020018280546103d690610a3d565b80156104235780601f106103f857610100808354040283529160200191610423565b820191906000526020600020905b81548152906001019060200180831161040657829003601f168201915b505050505091509450945094509450945091939590929450565b60006040518060a001604052806000805490508152602001428152602001848152602001838152602001600015158152509080600181540180825580915050600190039060005260206000209060050201600090919091909150600082015181600001556020820151816001015560408201518160020190816104c09190610c49565b5060608201518160030190816104d69190610c49565b5060808201518160040160006101000a81548160ff02191690831515021790555050505050565b600081519050919050565b600082825260208201905092915050565b6000819050602082019050919050565b6000819050919050565b61053c81610529565b82525050565b600081519050919050565b600082825260208201905092915050565b60005b8381101561057c578082015181840152602081019050610561565b8381111561058b576000848401525b50505050565b6000601f19601f8301169050919050565b60006105ad82610542565b6105b7818561054d565b93506105c781856020860161055e565b6105d081610591565b840191505092915050565b60008115159050919050565b6105f0816105db565b82525050565b600060a08301600083015161060e6000860182610533565b5060208301516106216020860182610533565b506040830151848203604086015261063982826105a2565b9150506060830151848203606086015261065382826105a2565b915050608083015161066860808601826105e7565b508091505092915050565b600061067f83836105f6565b905092915050565b6000602082019050919050565b600061069f826104fd565b6106a98185610508565b9350836020820285016106bb85610519565b8060005b858110156106f757848403895281516106d88582610673565b94506106e383610687565b925060208a019950506001810190506106bf565b50829750879550505050505092915050565b600060208201905081810360008301526107238184610694565b905092915050565b6000604051905090565b600080fd5b600080fd5b61074881610529565b811461075357600080fd5b50565b6000813590506107658161073f565b92915050565b60006020828403121561078157610780610735565b5b600061078f84828501610756565b91505092915050565b6107a181610529565b82525050565b600082825260208201905092915050565b60006107c382610542565b6107cd81856107a7565b93506107dd81856020860161055e565b6107e681610591565b840191505092915050565b6107fa816105db565b82525050565b600060a0820190506108156000830188610798565b6108226020830187610798565b818103604083015261083481866107b8565b9050818103606083015261084881856107b8565b905061085760808301846107f1565b9695505050505050565b600080fd5b600080fd5b7f4e487b7100000000000000000000000000000000000000000000000000000000600052604160045260246000fd5b6108a382610591565b810181811067ffffffffffffffff821117156108c2576108c161086b565b5b80604052505050565b60006108d561072b565b90506108e1828261089a565b919050565b600067ffffffffffffffff8211156109015761090061086b565b5b61090a82610591565b9050602081019050919050565b82818337600083830152505050565b6000610939610934846108e6565b6108cb565b90508281526020810184848401111561095557610954610866565b5b610960848285610917565b509392505050565b600082601f83011261097d5761097c610861565b5b813561098d848260208601610926565b91505092915050565b600080604083850312156109ad576109ac610735565b5b600083013567ffffffffffffffff8111156109cb576109ca61073a565b5b6109d785828601610968565b925050602083013567ffffffffffffffff8111156109f8576109f761073a565b5b610a0485828601610968565b9150509250929050565b7f4e487b7100000000000000000000000000000000000000000000000000000000600052602260045260246000fd5b60006002820490506001821680610a5557607f821691505b602082108103610a6857610a67610a0e565b5b50919050565b7f4e487b7100000000000000000000000000000000000000000000000000000000600052603260045260246000fd5b60008190508160005260206000209050919050565b60006020601f8301049050919050565b600082821b905092915050565b600060088302610aff7fffffffffffffffffffffffffffffffffffffffffffffffffffffffffffffffff82610ac2565b610b098683610ac2565b95508019841693508086168417925050509392505050565b6000819050919050565b6000610b46610b41610b3c84610529565b610b21565b610529565b9050919050565b6000819050919050565b610b6083610b2b565b610b74610b6c82610b4d565b848454610acf565b825550505050565b600090565b610b89610b7c565b610b94818484610b57565b505050565b5b81811015610bb857610bad600082610b81565b600181019050610b9a565b5050565b601f821115610bfd57610bce81610a9d565b610bd784610ab2565b81016020851015610be6578190505b610bfa610bf285610ab2565b830182610b99565b50505b505050565b600082821c905092915050565b6000610c2060001984600802610c02565b1980831691505092915050565b6000610c398383610c0f565b9150826002028217905092915050565b610c5282610542565b67ffffffffffffffff811115610c6b57610c6a61086b565b5b610c758254610a3d565b610c80828285610bbc565b600060209050601f831160018114610cb35760008415610ca1578287015190505b610cab8582610c2d565b865550610d13565b601f198416610cc186610a9d565b60005b82811015610ce957848901518255600182019150602085019450602081019050610cc4565b86831015610d065784890151610d02601f891682610c0f565b8355505b6001600288020188555050505b50505050505056fea26469706673582212209a1aca2d053e73dc8f991a86d4c09a7851067bcf616b8254daa1171877a790c064736f6c634300080f0033",
  "immutableReferences": {},
  "source": "// SPDX-License-Identifier: MIT\npragma solidity >=0.4.22 <0.9.0;\n\ncontract ToDo {\n\n  struct Task {\n    uint id;\n    uint date;\n    string content;\n    string author;\n    bool done;\n  }\n\n  Task[] tasks;\n\n  function createTask(string memory _content, string memory _author) public {\n    tasks.push(Task(tasks.length, block.timestamp, _content, _author, false));\n  }\n\n  function getTask(uint _id) public view\n    returns(\n      uint, \n      uint, \n      string memory, \n      string memory, \n      bool\n    ) {\n      return(\n        _id, \n        tasks[_id].date, \n        tasks[_id].content, \n        tasks[_id].author, \n        tasks[_id].done\n      );\n    }\n\n  function getTasks() public view returns(Task[] memory) {\n    return tasks;\n  }\n\n}",
  "sourcePath": "E:\\PROGRAMISTA\\GIT\\kryptoprogramista89\\Edukacja\\EatTheBlocks\\eththeblocks-tutorial-projects\\1_todolist-ethereum-dapp\\contracts\\ToDo.sol",
  "compiler": {
    "name": "solc",
    "version": "0.8.15+commit.e14f2714.Emscripten.clang"
  },
  "schemaVersion": "3.4.8",
  "updatedAt": "2022-07-22T20:23:33.930Z",
  "networkType": "ethereum",
  "devdoc": {
    "kind": "dev",
    "methods": {},
    "version": 1
  },
  "userdoc": {
    "kind": "user",
    "methods": {},
    "version": 1
  }
}